:02000000B52C1D
:10000800FF00030E8301EC000A08ED008A01700866
:10001800A7007108A6007208A5007408A400750856
:10002800A3007808A2007908A1007C08A0009B30F2
:1000380081003208013A031D2D284F08013EF000C7
:1000480000300318013E5007F1007008CF00710816
:10005800D0002C08013A031D35282B0AF00070083F
:10006800AB004E08013A031D3C28B30A0319B40A31
:10007800E830F4000330F5004F08F0005008F100B4
:10008800D1227808F0007908F10000307106031DCC
:100098004F2800307006031D53280130AE06500863
:1000A800133A031D592888304F06031D5E28B201F4
:1000B8000130AC002B08643A031D65280130AD00FF
:1000C8002E24E830F4000330F5003308F00034083B
:1000D800F100D1227808F0007908F10000307106AB
:1000E800031D782800307006031D86281030860608
:1000F8003408EA3A031D822860303306031D862837
:10010800B301B40120308B002708F0002608F10065
:100118002508F2002408F4002308F5002208F80056
:100128002108F9002008FC006D088A006C0E830085
:06013800FF0E7F0E09001E
:10013E00831203132A08930083161418A8280000AC
:0A014E00A32883121308F000080034
:0E015800831203136B088A006A0882000800F5
:10016600831603131419C1281F301105F1007108F5
:10017600003A031DC1280130F000C228F001080032
:10018600831203134A088316B30083124B0883169F
:10019600B40083124C088316B50083124D088316EB
:1001A600B600B101B2013208123C031DDC28310849
:1001B6008E3C031CE728B32070080319E328E728C0
:1001C600B10A0319B20AD62812303202031DED28ED
:1001D6008F303102031CF2287B30F00021291114E4
:1001E6008316111C202983124A084B044C044D0423
:1001F60003191F2983163308340435043604031DF6
:10020600162983126908840005308000840A67086D
:10021600EA006808EB00AC208A110A12013083124A
:100226000313F000212901308316B302031CB40224
:0E023600031CB502031CB602F328F0010800F9
:10024400831203138C11290893004A088316B10002
:1002540083124B088316B20083124C088316B30032
:1002640083124D088316B4008316141D6329831268
:100274004A084B044C044D040319622983163108BF
:10028400320433043404031D592983126908840099
:1002940004308000840A6708EA006808EB00AC2098
:1002A4008A110A12013083120313F000A7290130C6
:1002B4008316B102031CB202031CB302031CB40272
:1002C400362983124A088316B10083124B08831619
:1002D400B20083124C088316B30083124D088316B0
:1002E400B40083128C199F294A084B044C044D0412
:1002F40003199E2983163108320433043404031D80
:10030400952983126908840004308000840A6708F0
:10031400EA006808EB00AC208A110A12013083124B
:100324000313F000A72901308316B102031CB202A3
:10033400031CB302031CB40273298316111BA429E2
:0C034400F001A72911150230F00008009C
:10035000831203134A088316B20083124B088316D4
:10036000B30083124C088316B40083124D08831621
:10037000B50083128C118316911583128C19E6290E
:100380004A084B044C044D040319E529831632082E
:10039000330434043504031DDB2983126908840007
:1003A00003308000840A6708EA006808EB00AC208C
:1003B0008A110A12E629013083160313B202031CC4
:1003C000B302031CB402031CB502BD29031383123C
:1003D00013088316B10083122808003A031DF3297D
:1003E00083169116F5298316911283128C118316A8
:1003F000111683124A088316B20083124B08831623
:10040000B30083124C088316B40083124D08831680
:10041000B50083128C19322A4A084B044C044D044F
:100420000319312A83163208330434043504031DBA
:10043000272A83126908840003308000840A670831
:10044000EA006808EB00AC208A110A12322A013057
:1004500083160313B202031CB302031CB402031C71
:0E046000B502092A831603133108F0000800C4
:08046E008316031311150800A9
:100476000030831603132C05F3002D080139F40010
:100486007408F000F1017008AF00FF302C05B000D1
:10049600C320831603132F080319562AA23083128A
:1004A600A90022215B2AA03083120313A90022216E
:1004B6008316031330088312A9002221C320831652
:1004C60003132F0803196C2AA3308312A9002221D3
:1004D600712AA13083120313A9002221013083124D
:1004E6000313A800A8217008AE0037222E08F000DA
:0204F6000800FC
:0E04F800831203136B088A006A088200080052
:10050600831203132230FC00F801F901FA01FB0102
:10051600FC030319B92A0310FB0CFA0CF90CF80CAE
:10052600F30CF20CF10CF00C031C8B2AFC030319E0
:10053600AB2A7408F80775080318750FF9077608CB
:100546000318760FFA0777080318770FFB078F2A29
:100556007408F80775080318750FF9077608031865
:0E056600760FFA0777080318770FFB070800D7
:100574000F30831603132405F0000030F100F5302A
:10058400F00705300318013EF10770088312EA00F2
:0E0594007108EB007C228A110A12F0000800A8
:1005A20083120313F801F9011030FC00710DF80DEC
:1005B200F90D7408F8027508031C750FF902031887
:1005C200E92A7408F80775080318750FF90703106C
:0A05D200F00DF10DFC0BD72A080014
:1005DC0083120313F8010830FC00700DF80D740839
:1005EC00F8020318FB2AF8070310F00DFC0BF32A92
:0205FC000800F5
:1005FE00831603132608A700A80100302405F30074
:10060E0025080139F4007408F000F1017008A90002
:10061E00FF302405AA00AB01C3208316031329085B
:10062E0003191E2BA2308312A9002221232BA030E6
:10063E0083120313A9002221831603132A0883129F
:10064E00A90022218316031327088312A900222151
:10065E003722AB0A2408AC002508AD003B2200303F
:10066E002806031D3C2B700827060319432B0A305E
:0A067E002B020318432B132B080076
:10068800831203131F08F100F10CF113F10CF1139D
:10069800711C4F2B442B1E08F100F2017108F30066
:1006A8007208F400F30DF40D7310F30DF40D7310CC
:1006B8000630F10083161E08F00071080319682B34
:1006C800F00CF013FF3E622B0030F1007308F004C9
:0606D8007408F1040800A3
:1006DE008312031338083607F00037080318013E5B
:1006EE003907F1003A08F0073B080318013EF107FD
:1006FE003C08F0073D080318013EF1073E08F007DD
:10070E003F080318013EF1074008F007410803189F
:10071E00013EF1074208F00743080318013EF107B6
:10072E004408F00745080318013EF1074608F00794
:10073E0047080318013EF1074808F0074908031857
:10074E00013EF1076430F4000030F500D1220800BC
:10075E00831203133508F000F00D70107008363E4A
:10076E0084006E0880006F08840A8000B50A350880
:0A077E000A3A031DC32BB501080061
:0A07880004308316031381000800FB
:0A07920083120313871607110800F5
:06079C00A0308B000800F4
:1007A2004B308312031330020318D92B0530B007E4
:1007B20002308316A4000030A5008312300883168D
:0607C200A600FF22080062
:0A07C80083120313071587120800BF
:0C07D2008312031307118712061208009F
:1007DE00C73083160313850007308600013087006B
:0407EE008801080076
:1007F200B33083120313E4000030E5000030E6005A
:100802000030C330E1000030E2000030E30000308D
:10081200FF30D800FF30D9000030DA000030A830B5
:10082200D5000130D6002830D70000302230DB005E
:100832000130DC002930DD0000303730DE000230CC
:10084200DF000030E0000030831614139413071603
:0A0852008715383083129400080067
:0C085C001130831203139F001F150800C9
:10086800831203133008233C03183C2C0530B002D4
:1008780002308316A4000030A500831230088316C6
:06088800A600FF2208009B
:10088E000A3083120313F4006E08F000EE2278088B
:10089E00F00070088316A400BA2270088800203079
:1008AE0085000730FC007D30FD00FD0B5C2CFC0B41
:1008BE005C2C0A30F4006E08F000EE2270088316ED
:1008CE00A400BA2270088800103085000730FC00A2
:0E08DE007D30FD00FD0B712CFC0B712C080011
:0A08EC0083120313851205120800A1
:1008F6007C228A110A128000840AEA0A0319EB0A8A
:08090600F003031D7B2C080027
:10090E004423003083120313F200F3008830F40006
:10091E001330F500F601F70183220A30F800700853
:10092E00F4007108F5007208F6007308F7007808F5
:10093E000319A82CF70CF60CF50CF40CF713FF3E6C
:0C094E009F2C7408F0007508F1000800F0
:10095A000230831603139F00413083129F00080060
:10096A0006263230831603139300F92302308316C6
:10097A00AC000030AD003B2270088312B000C423E3
:10098A00EF23AD242F08003A031DE62C0608F100D8
:10099A00F10CF113F10CF1137118DE2C0130AF00D8
:1009AA000608F100F10CF113F10CF1137118DE2CA9
:1009BA00D52C3108013A031DE52C7624E923B1012F
:1009CA00C72C2F08013A031DCB2D3108003A031D0D
:1009DA00F62C2E2487247008D1007108D200013029
:1009EA00B1000608F100F10CF113F10CF1137118C2
:1009FA00092DAF010608F100F10CF113F10CF11306
:100A0A007118082DFF2CCA2D0608F100F10CF113FC
:100A1A00711C142D0608F100711C142D2F2D32089B
:100A2A00003A031D2F2D9B308100CF01D001CE2328
:100A3A000130B200AC01AB01CE01E9230608F10096
:100A4A00F10CF113711C2E2D0608F100711C2E2DCC
:100A5A002F2D232D3208013A031D682D0608F100B7
:100A6A00F10CF113F10CF113711C682D0608F10059
:100A7A00F10CF11371184F2D9B308100CF01D00179
:100A8A00D12383120608F100F10CF11371184E2DCF
:100A9A00462D5E2D0608F10071185E2D9B308100EF
:100AAA00CF01D001342483120608F10071185E2D9B
:100ABA00582D2E08013A031D662D3008EE004724F2
:100ACA00672D76242F2D2C08013A031DCA2D0608FE
:100ADA00F100F10CF113F10CF113711CCA2D060887
:100AEA00F100F10CF113711CCA2D0608F100711CFA
:100AFA00CA2DB201CF01D001CE232D08013A031D20
:100B0A00942D9B308100AB01AD0187247008D10080
:100B1A007108D2007008EE007108EF00AF236F234E
:100B2A007008D300D40105305307F10054080318A4
:100B3A00013EF20000307202031DA52D3008710239
:100B4A000318AA2D0130CE00C92305305302F10043
:100B5A000030031C013E5402F2007208003C031DDF
:100B6A00B82D710830020318BD2DCE01E4230616F4
:100B7A000A30F4000030F5005108F0005208F10084
:100B8A00D1227008EE004724682DE62CC72CCC2D04
:100C0C002B308400233083120313F000D230EA001F
:080C1C000530EB007B24080009
:020BA40000341B
:020BA600013418
:020BA800013416
:020BAA00003415
:020BAC00003413
:020BAE003C34D5
:020BB00001340E
:020BB20000340D
:040BB40000340034D5
:020BB800003407
:100BBA00003400340034003400340034003400348B
:100BCA00003400340034003400340034003400347B
:080BDA00003400340034003443
:080BE20000340034003400343B
:100BEA003F3406345B344F3466346D347D34073415
:100BFA00FF34EF340034003400340034003400345D
:02400E004A2F37
:00000001FF
